{
  "contractName": "registry",
  "abi": [
    {
      "inputs": [],
      "payable": false,
      "stateMutability": "nonpayable",
      "type": "constructor"
    },
    {
      "constant": true,
      "inputs": [
        {
          "internalType": "uint256",
          "name": "",
          "type": "uint256"
        }
      ],
      "name": "flats",
      "outputs": [
        {
          "internalType": "uint256",
          "name": "id",
          "type": "uint256"
        },
        {
          "internalType": "address",
          "name": "owner",
          "type": "address"
        },
        {
          "internalType": "string",
          "name": "name",
          "type": "string"
        },
        {
          "internalType": "string",
          "name": "addr",
          "type": "string"
        },
        {
          "internalType": "uint256",
          "name": "price",
          "type": "uint256"
        },
        {
          "internalType": "uint256",
          "name": "bedRooms",
          "type": "uint256"
        },
        {
          "internalType": "uint256",
          "name": "bathRooms",
          "type": "uint256"
        },
        {
          "internalType": "uint256",
          "name": "squareFeet",
          "type": "uint256"
        },
        {
          "internalType": "uint256",
          "name": "yearBuilt",
          "type": "uint256"
        },
        {
          "internalType": "string",
          "name": "photos",
          "type": "string"
        },
        {
          "internalType": "enum registry.flatStatus",
          "name": "status",
          "type": "uint8"
        },
        {
          "internalType": "address",
          "name": "buyer",
          "type": "address"
        }
      ],
      "payable": false,
      "stateMutability": "view",
      "type": "function"
    },
    {
      "constant": false,
      "inputs": [
        {
          "internalType": "string",
          "name": "_name",
          "type": "string"
        },
        {
          "internalType": "string",
          "name": "_addr",
          "type": "string"
        },
        {
          "internalType": "uint256",
          "name": "_price",
          "type": "uint256"
        },
        {
          "internalType": "uint256",
          "name": "_beds",
          "type": "uint256"
        },
        {
          "internalType": "uint256",
          "name": "_baths",
          "type": "uint256"
        },
        {
          "internalType": "uint256",
          "name": "_sqft",
          "type": "uint256"
        },
        {
          "internalType": "uint256",
          "name": "_year",
          "type": "uint256"
        },
        {
          "internalType": "string",
          "name": "_photos",
          "type": "string"
        }
      ],
      "name": "addFlat",
      "outputs": [],
      "payable": false,
      "stateMutability": "nonpayable",
      "type": "function"
    },
    {
      "constant": true,
      "inputs": [],
      "name": "getFlats",
      "outputs": [
        {
          "components": [
            {
              "internalType": "uint256",
              "name": "id",
              "type": "uint256"
            },
            {
              "internalType": "address",
              "name": "owner",
              "type": "address"
            },
            {
              "internalType": "string",
              "name": "name",
              "type": "string"
            },
            {
              "internalType": "string",
              "name": "addr",
              "type": "string"
            },
            {
              "internalType": "uint256",
              "name": "price",
              "type": "uint256"
            },
            {
              "internalType": "uint256",
              "name": "bedRooms",
              "type": "uint256"
            },
            {
              "internalType": "uint256",
              "name": "bathRooms",
              "type": "uint256"
            },
            {
              "internalType": "uint256",
              "name": "squareFeet",
              "type": "uint256"
            },
            {
              "internalType": "uint256",
              "name": "yearBuilt",
              "type": "uint256"
            },
            {
              "internalType": "string",
              "name": "photos",
              "type": "string"
            },
            {
              "internalType": "enum registry.flatStatus",
              "name": "status",
              "type": "uint8"
            },
            {
              "internalType": "address",
              "name": "buyer",
              "type": "address"
            }
          ],
          "internalType": "struct registry.flat[]",
          "name": "",
          "type": "tuple[]"
        }
      ],
      "payable": false,
      "stateMutability": "view",
      "type": "function"
    },
    {
      "constant": false,
      "inputs": [
        {
          "internalType": "uint256",
          "name": "_id",
          "type": "uint256"
        }
      ],
      "name": "buy",
      "outputs": [],
      "payable": false,
      "stateMutability": "nonpayable",
      "type": "function"
    },
    {
      "constant": false,
      "inputs": [
        {
          "internalType": "uint256",
          "name": "_id",
          "type": "uint256"
        }
      ],
      "name": "sell",
      "outputs": [],
      "payable": false,
      "stateMutability": "nonpayable",
      "type": "function"
    },
    {
      "constant": false,
      "inputs": [
        {
          "internalType": "uint256",
          "name": "_id",
          "type": "uint256"
        }
      ],
      "name": "makeForSell",
      "outputs": [
        {
          "internalType": "bool",
          "name": "",
          "type": "bool"
        }
      ],
      "payable": false,
      "stateMutability": "nonpayable",
      "type": "function"
    },
    {
      "constant": false,
      "inputs": [],
      "name": "destroy",
      "outputs": [],
      "payable": false,
      "stateMutability": "nonpayable",
      "type": "function"
    }
  ],
  "bytecode": "0x60806040523480156200001157600080fd5b50600180546001600160a01b03191673a802beae0c5c90e96241fd0000c7c258de131080179055604080516101808101825260008082527395c942ce0bd7a66d6b9515e13fac1d5da8a5ff5e60208084019190915283518085018552600d81526c4e59432050656e74686f75736560981b8183015283850152835160608181019095526029808252929484019290916200175490830139815260200160148152602001600281526020016003815260200161089881526020016107dd81526020016040518060a00160405280606181526020016200177d606191398152602001600081526000602091820181905283546001808201808755958352918390208451600b909202019081558383015191810180546001600160a01b0319166001600160a01b03909316929092179091556040830151805191926200015d9260028501929091019062000602565b50606082015180516200017b91600384019160209091019062000602565b506080820151600482015560a0820151600582015560c0820151600682015560e0820151600782015561010082015160088201556101208201518051620001cd91600984019160209091019062000602565b50610140820151600a8201805460ff19166001836002811115620001ed57fe5b021790555061016082015181600a0160016101000a8154816001600160a01b0302191690836001600160a01b0316021790555050505060006040518061018001604052806001815260200173b355378d82825ac7cf1ac96e837fd712cf7721d16001600160a01b031681526020016040518060200160405280600081525081526020016040518060600160405280602a8152602001620017de602a91398152602001600f81526020016004815260200160048152602001610f8b81526020016107da81526020016040518060a0016040528060618152602001620016c8606191398152602001600081526000602091820181905283546001808201808755958352918390208451600b909202019081558383015191810180546001600160a01b0319166001600160a01b03909316929092179091556040830151805191926200033f9260028501929091019062000602565b50606082015180516200035d91600384019160209091019062000602565b506080820151600482015560a0820151600582015560c0820151600682015560e0820151600782015561010082015160088201556101208201518051620003af91600984019160209091019062000602565b50610140820151600a8201805460ff19166001836002811115620003cf57fe5b021790555061016082015181600a0160016101000a8154816001600160a01b0302191690836001600160a01b031602179055505050506000604051806101800160405280600281526020017347afbc529162dbe9fdfaa373a78c65a86e550a506001600160a01b031681526020016040518060400160405280600c81526020016b44726976656e20576f6f647360a01b81525081526020016040518060600160405280602b815260200162001729602b91398152602001600a8152602001600381526020016003815260200161089a81526020016107e081526020016040518060a001604052806061815260200162001667606191398152602001600081526000602091820181905283546001808201808755958352918390208451600b909202019081558383015191810180546001600160a01b0319166001600160a01b0390931692909217909155604083015180519192620005369260028501929091019062000602565b50606082015180516200055491600384019160209091019062000602565b506080820151600482015560a0820151600582015560c0820151600682015560e0820151600782015561010082015160088201556101208201518051620005a691600984019160209091019062000602565b50610140820151600a8201805460ff19166001836002811115620005c657fe5b021790555061016082015181600a0160016101000a8154816001600160a01b0302191690836001600160a01b03160217905550505050620006a7565b828054600181600116156101000203166002900490600052602060002090601f016020900481019282601f106200064557805160ff191683800117855562000675565b8280016001018555821562000675579182015b828111156200067557825182559160200191906001019062000658565b506200068392915062000687565b5090565b620006a491905b808211156200068357600081556001016200068e565b90565b610fb080620006b76000396000f3fe608060405234801561001057600080fd5b506004361061007d5760003560e01c806383197ef01161005b57806383197ef0146100e0578063a0bb987f146100e8578063d96a094a14610108578063e4849b321461011b5761007d565b806314a9f8da146100825780635d9a4dfb146100b657806365bf93ee146100cb575b600080fd5b610095610090366004610b78565b61012e565b6040516100ad9c9b9a99989796959493929190610dab565b60405180910390f35b6100be61035c565b6040516100ad9190610d8c565b6100de6100d9366004610a81565b610614565b005b6100de6107b1565b6100fb6100f6366004610b78565b6107bf565b6040516100ad9190610d9d565b6100de610116366004610b78565b61083d565b6100de610129366004610b78565b6108be565b6000818154811061013b57fe5b6000918252602091829020600b91909102018054600180830154600280850180546040805161010096831615969096026000190190911692909204601f81018890048802850188019092528184529396506001600160a01b03909116949192918301828280156101ec5780601f106101c1576101008083540402835291602001916101ec565b820191906000526020600020905b8154815290600101906020018083116101cf57829003601f168201915b5050505060038301805460408051602060026001851615610100026000190190941693909304601f810184900484028201840190925281815294959493509083018282801561027c5780601f106102515761010080835404028352916020019161027c565b820191906000526020600020905b81548152906001019060200180831161025f57829003601f168201915b505050505090806004015490806005015490806006015490806007015490806008015490806009018054600181600116156101000203166002900480601f0160208091040260200160405190810160405280929190818152602001828054600181600116156101000203166002900480156103385780601f1061030d57610100808354040283529160200191610338565b820191906000526020600020905b81548152906001019060200180831161031b57829003601f168201915b505050600a909301549192505060ff8116906001600160a01b03610100909104168c565b60606000805480602002602001604051908101604052809291908181526020016000905b8282101561060a5760008481526020908190206040805161018081018252600b8602909201805483526001808201546001600160a01b0316848601526002808301805485516101009482161594909402600019011691909104601f81018790048702830187018552808352949592949386019391929091908301828280156104495780601f1061041e57610100808354040283529160200191610449565b820191906000526020600020905b81548152906001019060200180831161042c57829003601f168201915b505050918352505060038201805460408051602060026001851615610100026000190190941693909304601f81018490048402820184019092528181529382019392918301828280156104dd5780601f106104b2576101008083540402835291602001916104dd565b820191906000526020600020905b8154815290600101906020018083116104c057829003601f168201915b505050505081526020016004820154815260200160058201548152602001600682015481526020016007820154815260200160088201548152602001600982018054600181600116156101000203166002900480601f0160208091040260200160405190810160405280929190818152602001828054600181600116156101000203166002900480156105b15780601f10610586576101008083540402835291602001916105b1565b820191906000526020600020905b81548152906001019060200180831161059457829003601f168201915b5050509183525050600a82015460209091019060ff1660028111156105d257fe5b60028111156105dd57fe5b8152600a919091015461010090046001600160a01b03166020918201529082526001929092019101610380565b5050505090505b90565b6000808054905090506000604051806101800160405280838152602001336001600160a01b031681526020018b81526020018a81526020018981526020018881526020018781526020018681526020018581526020018481526020016000600281111561067d57fe5b81526000602091820181905283546001808201808755958352918390208451600b909202019081558383015191810180546001600160a01b0319166001600160a01b03909316929092179091556040830151805191926106e592600285019290910190610984565b5060608201518051610701916003840191602090910190610984565b506080820151600482015560a0820151600582015560c0820151600682015560e0820151600782015561010082015160088201556101208201518051610751916009840191602090910190610984565b50610140820151600a8201805460ff1916600183600281111561077057fe5b021790555061016082015181600a0160016101000a8154816001600160a01b0302191690836001600160a01b03160217905550505050505050505050505050565b6001546001600160a01b0316ff5b60008082815481106107cd57fe5b60009182526020909120600b90910201600101546001600160a01b03163314156108345760008083815481106107ff57fe5b60009182526020909120600a600b9092020101805460ff1916600183600281111561082657fe5b021790555060019050610838565b5060005b919050565b336000828154811061084b57fe5b90600052602060002090600b0201600a0160016101000a8154816001600160a01b0302191690836001600160a01b0316021790555060016000828154811061088f57fe5b60009182526020909120600a600b9092020101805460ff191660018360028111156108b657fe5b021790555050565b600081815481106108cb57fe5b90600052602060002090600b0201600a0160019054906101000a90046001600160a01b0316600082815481106108fd57fe5b90600052602060002090600b020160010160006101000a8154816001600160a01b0302191690836001600160a01b03160217905550600080828154811061094057fe5b90600052602060002090600b0201600a0160016101000a8154816001600160a01b0302191690836001600160a01b0316021790555060026000828154811061088f57fe5b828054600181600116156101000203166002900490600052602060002090601f016020900481019282601f106109c557805160ff19168380011785556109f2565b828001600101855582156109f2579182015b828111156109f25782518255916020019190600101906109d7565b506109fe929150610a02565b5090565b61061191905b808211156109fe5760008155600101610a08565b600082601f830112610a2d57600080fd5b8135610a40610a3b82610e9a565b610e73565b91508082526020830160208301858383011115610a5c57600080fd5b610a67838284610f06565b50505092915050565b8035610a7b81610f59565b92915050565b600080600080600080600080610100898b031215610a9e57600080fd5b883567ffffffffffffffff811115610ab557600080fd5b610ac18b828c01610a1c565b985050602089013567ffffffffffffffff811115610ade57600080fd5b610aea8b828c01610a1c565b9750506040610afb8b828c01610a70565b9650506060610b0c8b828c01610a70565b9550506080610b1d8b828c01610a70565b94505060a0610b2e8b828c01610a70565b93505060c0610b3f8b828c01610a70565b92505060e089013567ffffffffffffffff811115610b5c57600080fd5b610b688b828c01610a1c565b9150509295985092959890939650565b600060208284031215610b8a57600080fd5b6000610b968484610a70565b949350505050565b6000610baa8383610c78565b9392505050565b610bba81610ed5565b82525050565b6000610bcb82610ec8565b610bd58185610ecc565b935083602082028501610be785610ec2565b8060005b85811015610c215784840389528151610c048582610b9e565b9450610c0f83610ec2565b60209a909a0199925050600101610beb565b5091979650505050505050565b610bba81610ee0565b610bba81610efb565b6000610c4b82610ec8565b610c558185610ecc565b9350610c65818560208601610f12565b610c6e81610f42565b9093019392505050565b8051600090610180840190610c8d8582610d83565b506020830151610ca06020860182610bb1565b5060408301518482036040860152610cb88282610c40565b91505060608301518482036060860152610cd28282610c40565b9150506080830151610ce76080860182610d83565b5060a0830151610cfa60a0860182610d83565b5060c0830151610d0d60c0860182610d83565b5060e0830151610d2060e0860182610d83565b50610100830151610d35610100860182610d83565b50610120830151848203610120860152610d4f8282610c40565b915050610140830151610d66610140860182610c37565b50610160830151610d7b610160860182610bb1565b509392505050565b610bba81610611565b60208082528101610baa8184610bc0565b60208101610a7b8284610c2e565b6101808101610dba828f610d83565b610dc7602083018e610bb1565b8181036040830152610dd9818d610c40565b90508181036060830152610ded818c610c40565b9050610dfc608083018b610d83565b610e0960a083018a610d83565b610e1660c0830189610d83565b610e2360e0830188610d83565b610e31610100830187610d83565b818103610120830152610e448186610c40565b9050610e54610140830185610c37565b610e62610160830184610bb1565b9d9c50505050505050505050505050565b60405181810167ffffffffffffffff81118282101715610e9257600080fd5b604052919050565b600067ffffffffffffffff821115610eb157600080fd5b506020601f91909101601f19160190565b60200190565b5190565b90815260200190565b6000610a7b82610eef565b151590565b8061083881610f4c565b6001600160a01b031690565b6000610a7b82610ee5565b82818337506000910152565b60005b83811015610f2d578181015183820152602001610f15565b83811115610f3c576000848401525b50505050565b601f01601f191690565b60038110610f5657fe5b50565b610f6281610611565b8114610f5657600080fdfea365627a7a72315820092a0e5ecf88b1ba5e96dd0338e49777fcbdb1126335e6ba126fd06b84a2dc3f6c6578706572696d656e74616cf564736f6c6343000510004068747470733a2f2f62616679626569616467646f6e37666962716764726d65776a7632356376376c74766b6b34327772697661737166326662727a657a716833366b342e697066732e7733732e6c696e6b2f61706172746d656e745f312e6a706768747470733a2f2f626166796265696662346776376e637468336d786c32666f706d6c71676c676c6a77666874676d79747869686b796f6f6c797261657769336864692e697066732e7733732e6c696e6b2f61706172746d656e745f322e6a706731383320576f6f646c616e642044726976652c2043616d616e6f2049736c616e642c2057412039383238323135372057203537746820737420415054203439382c204e657720596f726b2c204e5920313030313068747470733a2f2f62616679626569636e66697337637967786f67763635706d6d73617a6a70796574346d68657369716733746b77797366626734777a3363646972612e697066732e7733732e6c696e6b2f61706172746d656e745f332e6a706737303738302054616d617269736b204c6e2c2052616e63686f204d69726167652c204341203932323730",
  "source": "pragma solidity >0.5.0;\r\npragma experimental ABIEncoderV2;\r\ncontract registry {\r\n    \r\n    enum flatStatus{\r\n        forSell,\r\n        underInspection,\r\n        noSell\r\n    }\r\n\r\n    struct flat{\r\n        uint id;\r\n        address owner;\r\n        string name;\r\n        string addr;\r\n        uint price;\r\n        uint bedRooms;\r\n        uint bathRooms;\r\n        uint squareFeet;\r\n        uint yearBuilt;\r\n        string photos;\r\n        flatStatus status;\r\n        address buyer;\r\n    }\r\n\r\n    flat[] public flats;\r\n\r\n    function addFlat(string memory _name, string memory _addr, uint _price, uint _beds, uint _baths, uint _sqft, uint _year, string memory _photos) public{\r\n        uint id = flats.length;\r\n        flats.push(flat(id, msg.sender, _name, _addr, _price, _beds, _baths, _sqft, _year, _photos, flatStatus.forSell, 0x0000000000000000000000000000000000000000));\r\n    }\r\n\r\n    function getFlats() public view returns(flat[] memory){\r\n        return flats;\r\n    }\r\n\r\n    function buy(uint _id) public{\r\n\r\n        flats[_id].buyer = msg.sender;\r\n        flats[_id].status = flatStatus.underInspection;\r\n    }\r\n\r\n    function sell(uint _id) public{\r\n        flats[_id].owner = flats[_id].buyer;\r\n        flats[_id].buyer = 0x0000000000000000000000000000000000000000;\r\n        flats[_id].status = flatStatus.noSell;\r\n    }\r\n\r\n    function makeForSell(uint _id) public returns(bool){\r\n        if(msg.sender == flats[_id].owner){\r\n            flats[_id].status = flatStatus.forSell;\r\n            return true;\r\n        }\r\n        return false;\r\n    }\r\n\r\n    // to destroy deployed contract\r\n    address payable contractOwner;\r\n    function destroy() public{\r\n        selfdestruct(contractOwner);\r\n    }\r\n\r\n    constructor() public {\r\n\r\n        contractOwner = address(uint160(0xa802beaE0c5C90E96241Fd0000c7c258de131080));\r\n\r\n        flats.push(flat(0, 0x95c942cE0BD7a66D6b9515E13fAC1d5da8A5FF5E, \"NYC Penthouse\", \"157 W 57th st APT 498, New York, NY 10010\", 20, 2, 3, 2200, 2013, \"https://bafybeicnfis7cygxogv65pmmsazjpyet4mhesiqg3tkwysfbg4wz3cdira.ipfs.w3s.link/apartment_3.jpg\", flatStatus.forSell, 0x0000000000000000000000000000000000000000));\r\n\r\n        flats.push(flat(1, 0xB355378d82825aC7cF1ac96E837Fd712cF7721d1, \"\", \"70780 Tamarisk Ln, Rancho Mirage, CA 92270\", 15, 4, 4, 3979, 2010, \"https://bafybeifb4gv7ncth3mxl2fopmlqglgljwfhtgmytxihkyoolyraewi3hdi.ipfs.w3s.link/apartment_2.jpg\", flatStatus.forSell, 0x0000000000000000000000000000000000000000));\r\n\r\n        flats.push(flat(2, 0x47aFBc529162dbE9FDFAa373A78c65a86E550A50, \"Driven Woods\", \"183 Woodland Drive, Camano Island, WA 98282\", 10, 3, 3, 2202, 2016, \"https://bafybeiadgdon7fibqgdrmewjv25cv7ltvkk42wrivasqf2fbrzezqh36k4.ipfs.w3s.link/apartment_1.jpg\", flatStatus.forSell, 0x0000000000000000000000000000000000000000));\r\n    }\r\n}",
  "sourcePath": "C:\\Users\\Shubham\\Desktop\\vs codes\\blockchain\\Twillow\\contracts\\registry.sol",
  "compiler": {
    "name": "solc",
    "version": "0.5.16+commit.9c3226ce.Emscripten.clang"
  },
  "schemaVersion": "3.4.11",
  "updatedAt": "2023-03-19T12:17:24.580Z",
  "networkType": "ethereum",
  "devdoc": {
    "methods": {}
  },
  "userdoc": {
    "methods": {}
  }
}