{
  "contractName": "retail",
  "abi": [
    {
      "inputs": [],
      "payable": false,
      "stateMutability": "nonpayable",
      "type": "constructor"
    },
    {
      "constant": true,
      "inputs": [
        {
          "internalType": "uint256",
          "name": "",
          "type": "uint256"
        }
      ],
      "name": "flats",
      "outputs": [
        {
          "internalType": "uint256",
          "name": "id",
          "type": "uint256"
        },
        {
          "internalType": "address",
          "name": "owner",
          "type": "address"
        },
        {
          "internalType": "string",
          "name": "name",
          "type": "string"
        },
        {
          "internalType": "string",
          "name": "addr",
          "type": "string"
        },
        {
          "internalType": "uint256",
          "name": "price",
          "type": "uint256"
        },
        {
          "internalType": "string",
          "name": "typeOFResidence",
          "type": "string"
        },
        {
          "internalType": "uint256",
          "name": "bedRooms",
          "type": "uint256"
        },
        {
          "internalType": "uint256",
          "name": "bathRooms",
          "type": "uint256"
        },
        {
          "internalType": "uint256",
          "name": "squareFeet",
          "type": "uint256"
        },
        {
          "internalType": "uint256",
          "name": "yearBuilt",
          "type": "uint256"
        },
        {
          "internalType": "enum retail.flatStatus",
          "name": "status",
          "type": "uint8"
        },
        {
          "internalType": "address",
          "name": "buyer",
          "type": "address"
        }
      ],
      "payable": false,
      "stateMutability": "view",
      "type": "function"
    },
    {
      "constant": true,
      "inputs": [],
      "name": "getFlats",
      "outputs": [
        {
          "components": [
            {
              "internalType": "uint256",
              "name": "id",
              "type": "uint256"
            },
            {
              "internalType": "address",
              "name": "owner",
              "type": "address"
            },
            {
              "internalType": "string",
              "name": "name",
              "type": "string"
            },
            {
              "internalType": "string",
              "name": "addr",
              "type": "string"
            },
            {
              "internalType": "uint256",
              "name": "price",
              "type": "uint256"
            },
            {
              "internalType": "string",
              "name": "typeOFResidence",
              "type": "string"
            },
            {
              "internalType": "uint256",
              "name": "bedRooms",
              "type": "uint256"
            },
            {
              "internalType": "uint256",
              "name": "bathRooms",
              "type": "uint256"
            },
            {
              "internalType": "uint256",
              "name": "squareFeet",
              "type": "uint256"
            },
            {
              "internalType": "uint256",
              "name": "yearBuilt",
              "type": "uint256"
            },
            {
              "internalType": "enum retail.flatStatus",
              "name": "status",
              "type": "uint8"
            },
            {
              "internalType": "address",
              "name": "buyer",
              "type": "address"
            }
          ],
          "internalType": "struct retail.flat[]",
          "name": "",
          "type": "tuple[]"
        }
      ],
      "payable": false,
      "stateMutability": "view",
      "type": "function"
    },
    {
      "constant": false,
      "inputs": [
        {
          "internalType": "uint256",
          "name": "_id",
          "type": "uint256"
        }
      ],
      "name": "buy",
      "outputs": [],
      "payable": false,
      "stateMutability": "nonpayable",
      "type": "function"
    },
    {
      "constant": false,
      "inputs": [
        {
          "internalType": "uint256",
          "name": "_id",
          "type": "uint256"
        }
      ],
      "name": "sell",
      "outputs": [],
      "payable": false,
      "stateMutability": "nonpayable",
      "type": "function"
    },
    {
      "constant": false,
      "inputs": [
        {
          "internalType": "uint256",
          "name": "_id",
          "type": "uint256"
        }
      ],
      "name": "makeForSell",
      "outputs": [
        {
          "internalType": "bool",
          "name": "",
          "type": "bool"
        }
      ],
      "payable": false,
      "stateMutability": "nonpayable",
      "type": "function"
    },
    {
      "constant": false,
      "inputs": [],
      "name": "destroy",
      "outputs": [],
      "payable": false,
      "stateMutability": "nonpayable",
      "type": "function"
    }
  ],
  "bytecode": "0x60806040523480156200001157600080fd5b50600180546001600160a01b03191673a802beae0c5c90e96241fd0000c7c258de131080179055604080516101808101825260008082527395c942ce0bd7a66d6b9515e13fac1d5da8a5ff5e60208084019190915283518085018552600d81526c4e59432050656e74686f75736560981b818301528385015283516060818101909552602980825292948401929091620012939083013981526020016014815260200160405180604001604052806005815260200164636f6e646f60d81b8152508152602001600281526020016003815260200161089881526020016107dd8152602001600060028111156200010357fe5b81526000602091820181905283546001808201808755958352918390208451600b909202019081558383015191810180546001600160a01b0319166001600160a01b03909316929092179091556040830151805191926200016d9260028501929091019062000624565b50606082015180516200018b91600384019160209091019062000624565b506080820151600482015560a08201518051620001b391600584019160209091019062000624565b5060c0820151600682015560e0820151600782015561010082015160088201556101208201516009820155610140820151600a8201805460ff19166001836002811115620001fd57fe5b021790555061016082015181600a0160016101000a8154816001600160a01b0302191690836001600160a01b0316021790555050505060006040518061018001604052806001815260200173b355378d82825ac7cf1ac96e837fd712cf7721d16001600160a01b031681526020016040518060200160405280600081525081526020016040518060600160405280602a8152602001620012bc602a91398152602001600f81526020016040518060200160405280600081525081526020016004815260200160048152602001610f8b81526020016107da815260200160006002811115620002e757fe5b81526000602091820181905283546001808201808755958352918390208451600b909202019081558383015191810180546001600160a01b0319166001600160a01b0390931692909217909155604083015180519192620003519260028501929091019062000624565b50606082015180516200036f91600384019160209091019062000624565b506080820151600482015560a082015180516200039791600584019160209091019062000624565b5060c0820151600682015560e0820151600782015561010082015160088201556101208201516009820155610140820151600a8201805460ff19166001836002811115620003e157fe5b021790555061016082015181600a0160016101000a8154816001600160a01b0302191690836001600160a01b031602179055505050506000604051806101800160405280600281526020017347afbc529162dbe9fdfaa373a78c65a86e550a506001600160a01b031681526020016040518060400160405280600c81526020016b44726976656e20576f6f647360a01b81525081526020016040518060600160405280602b815260200162001268602b91398152602001600a815260200160405180604001604052806005815260200164486f75736560d81b8152508152602001600381526020016003815260200161089a81526020016107e0815260200160006002811115620004ee57fe5b81526000602091820181905283546001808201808755958352918390208451600b909202019081558383015191810180546001600160a01b0319166001600160a01b0390931692909217909155604083015180519192620005589260028501929091019062000624565b50606082015180516200057691600384019160209091019062000624565b506080820151600482015560a082015180516200059e91600584019160209091019062000624565b5060c0820151600682015560e0820151600782015561010082015160088201556101208201516009820155610140820151600a8201805460ff19166001836002811115620005e857fe5b021790555061016082015181600a0160016101000a8154816001600160a01b0302191690836001600160a01b03160217905550505050620006c9565b828054600181600116156101000203166002900490600052602060002090601f016020900481019282601f106200066757805160ff191683800117855562000697565b8280016001018555821562000697579182015b82811115620006975782518255916020019190600101906200067a565b50620006a5929150620006a9565b5090565b620006c691905b80821115620006a55760008155600101620006b0565b90565b610b8f80620006d96000396000f3fe608060405234801561001057600080fd5b50600436106100625760003560e01c806314a9f8da146100675780635d9a4dfb1461009b57806383197ef0146100b0578063a0bb987f146100ba578063d96a094a146100da578063e4849b32146100ed575b600080fd5b61007a6100753660046107af565b610100565b6040516100929c9b9a999897969594939291906109e2565b60405180910390f35b6100a3610322565b60405161009291906109c3565b6100b86105cb565b005b6100cd6100c83660046107af565b6105d9565b60405161009291906109d4565b6100b86100e83660046107af565b610657565b6100b86100fb3660046107af565b6106d8565b6000818154811061010d57fe5b6000918252602091829020600b91909102018054600180830154600280850180546040805161010096831615969096026000190190911692909204601f81018890048802850188019092528184529396506001600160a01b03909116949192918301828280156101be5780601f10610193576101008083540402835291602001916101be565b820191906000526020600020905b8154815290600101906020018083116101a157829003601f168201915b5050505060038301805460408051602060026001851615610100026000190190941693909304601f810184900484028201840190925281815294959493509083018282801561024e5780601f106102235761010080835404028352916020019161024e565b820191906000526020600020905b81548152906001019060200180831161023157829003601f168201915b50505050600483015460058401805460408051602060026001851615610100026000190190941693909304601f810184900484028201840190925281815295969395939450908301828280156102e55780601f106102ba576101008083540402835291602001916102e5565b820191906000526020600020905b8154815290600101906020018083116102c857829003601f168201915b5050506006840154600785015460088601546009870154600a9097015495969295919450925060ff8116906001600160a01b03610100909104168c565b60606000805480602002602001604051908101604052809291908181526020016000905b828210156105c25760008481526020908190206040805161018081018252600b8602909201805483526001808201546001600160a01b0316848601526002808301805485516101009482161594909402600019011691909104601f810187900487028301870185528083529495929493860193919290919083018282801561040f5780601f106103e45761010080835404028352916020019161040f565b820191906000526020600020905b8154815290600101906020018083116103f257829003601f168201915b505050918352505060038201805460408051602060026001851615610100026000190190941693909304601f81018490048402820184019092528181529382019392918301828280156104a35780601f10610478576101008083540402835291602001916104a3565b820191906000526020600020905b81548152906001019060200180831161048657829003601f168201915b5050509183525050600482015460208083019190915260058301805460408051601f600260001961010060018716150201909416939093049283018590048502810185018252828152940193928301828280156105415780601f1061051657610100808354040283529160200191610541565b820191906000526020600020905b81548152906001019060200180831161052457829003601f168201915b505050918352505060068201546020820152600782015460408201526008820154606082015260098201546080820152600a82015460a09091019060ff16600281111561058a57fe5b600281111561059557fe5b8152600a919091015461010090046001600160a01b03166020918201529082526001929092019101610346565b50505050905090565b6001546001600160a01b0316ff5b60008082815481106105e757fe5b60009182526020909120600b90910201600101546001600160a01b031633141561064e57600080838154811061061957fe5b60009182526020909120600a600b9092020101805460ff1916600183600281111561064057fe5b021790555060019050610652565b5060005b919050565b336000828154811061066557fe5b90600052602060002090600b0201600a0160016101000a8154816001600160a01b0302191690836001600160a01b031602179055506001600082815481106106a957fe5b60009182526020909120600a600b9092020101805460ff191660018360028111156106d057fe5b021790555050565b600081815481106106e557fe5b90600052602060002090600b0201600a0160019054906101000a90046001600160a01b03166000828154811061071757fe5b90600052602060002090600b020160010160006101000a8154816001600160a01b0302191690836001600160a01b03160217905550600080828154811061075a57fe5b90600052602060002090600b0201600a0160016101000a8154816001600160a01b0302191690836001600160a01b031602179055506002600082815481106106a957fe5b80356107a981610b38565b92915050565b6000602082840312156107c157600080fd5b60006107cd848461079e565b949350505050565b60006107e183836108af565b9392505050565b6107f181610abd565b82525050565b600061080282610ab0565b61080c8185610ab4565b93508360208202850161081e85610aaa565b8060005b85811015610858578484038952815161083b85826107d5565b945061084683610aaa565b60209a909a0199925050600101610822565b5091979650505050505050565b6107f181610ac8565b6107f181610ae6565b600061088282610ab0565b61088c8185610ab4565b935061089c818560208601610af1565b6108a581610b21565b9093019392505050565b80516000906101808401906108c485826109ba565b5060208301516108d760208601826107e8565b50604083015184820360408601526108ef8282610877565b915050606083015184820360608601526109098282610877565b915050608083015161091e60808601826109ba565b5060a083015184820360a08601526109368282610877565b91505060c083015161094b60c08601826109ba565b5060e083015161095e60e08601826109ba565b506101008301516109736101008601826109ba565b506101208301516109886101208601826109ba565b5061014083015161099d61014086018261086e565b506101608301516109b26101608601826107e8565b509392505050565b6107f181610ae3565b602080825281016107e181846107f7565b602081016107a98284610865565b61018081016109f1828f6109ba565b6109fe602083018e6107e8565b8181036040830152610a10818d610877565b90508181036060830152610a24818c610877565b9050610a33608083018b6109ba565b81810360a0830152610a45818a610877565b9050610a5460c08301896109ba565b610a6160e08301886109ba565b610a6f6101008301876109ba565b610a7d6101208301866109ba565b610a8b61014083018561086e565b610a996101608301846107e8565b9d9c50505050505050505050505050565b60200190565b5190565b90815260200190565b60006107a982610ad7565b151590565b8061065281610b2b565b6001600160a01b031690565b90565b60006107a982610acd565b60005b83811015610b0c578181015183820152602001610af4565b83811115610b1b576000848401525b50505050565b601f01601f191690565b60038110610b3557fe5b50565b610b4181610ae3565b8114610b3557600080fdfea365627a7a72315820ce40555f6dd556a25b9478cfcd1843be93b29f29389b3aaa6cbe1831ac95b74d6c6578706572696d656e74616cf564736f6c6343000510004031383320576f6f646c616e642044726976652c2043616d616e6f2049736c616e642c2057412039383238323135372057203537746820737420415054203439382c204e657720596f726b2c204e5920313030313037303738302054616d617269736b204c6e2c2052616e63686f204d69726167652c204341203932323730",
  "source": "pragma solidity >0.5.0;\r\npragma experimental ABIEncoderV2;\r\ncontract retail {\r\n    \r\n    enum flatStatus{\r\n        forSell,\r\n        underInspection,\r\n        noSell\r\n    }\r\n\r\n    struct flat{\r\n        uint id;\r\n        address owner;\r\n        string name;\r\n        string addr;\r\n        uint price;\r\n        string typeOFResidence;\r\n        uint bedRooms;\r\n        uint bathRooms;\r\n        uint squareFeet;\r\n        uint yearBuilt;\r\n        flatStatus status;\r\n        address buyer;\r\n    }\r\n\r\n    flat[] public flats;\r\n\r\n    function getFlats() public view returns(flat[] memory){\r\n        return flats;\r\n    }\r\n\r\n    function buy(uint _id) public{\r\n\r\n        flats[_id].buyer = msg.sender;\r\n        flats[_id].status = flatStatus.underInspection;\r\n    }\r\n\r\n    function sell(uint _id) public{\r\n        flats[_id].owner = flats[_id].buyer;\r\n        flats[_id].buyer = 0x0000000000000000000000000000000000000000;\r\n        flats[_id].status = flatStatus.noSell;\r\n    }\r\n\r\n    function makeForSell(uint _id) public returns(bool){\r\n        if(msg.sender == flats[_id].owner){\r\n            flats[_id].status = flatStatus.forSell;\r\n            return true;\r\n        }\r\n        return false;\r\n    }\r\n\r\n    // to destroy deployed contract\r\n    address payable contractOwner;\r\n    function destroy() public{\r\n        selfdestruct(contractOwner);\r\n    }\r\n\r\n    constructor() public {\r\n\r\n        contractOwner = address(uint160(0xa802beaE0c5C90E96241Fd0000c7c258de131080));\r\n\r\n        flats.push(flat(0, 0x95c942cE0BD7a66D6b9515E13fAC1d5da8A5FF5E, \"NYC Penthouse\", \"157 W 57th st APT 498, New York, NY 10010\", 20, \"condo\", 2, 3, 2200, 2013, flatStatus.forSell, 0x0000000000000000000000000000000000000000));\r\n\r\n        flats.push(flat(1, 0xB355378d82825aC7cF1ac96E837Fd712cF7721d1, \"\", \"70780 Tamarisk Ln, Rancho Mirage, CA 92270\", 15, \"\", 4, 4, 3979, 2010, flatStatus.forSell, 0x0000000000000000000000000000000000000000));\r\n\r\n        flats.push(flat(2, 0x47aFBc529162dbE9FDFAa373A78c65a86E550A50, \"Driven Woods\", \"183 Woodland Drive, Camano Island, WA 98282\", 10, \"House\", 3, 3, 2202, 2016, flatStatus.forSell, 0x0000000000000000000000000000000000000000));\r\n    }\r\n}",
  "sourcePath": "C:\\Users\\Shubham\\Desktop\\vs codes\\blockchain\\Twillow\\contracts\\retail.sol",
  "compiler": {
    "name": "solc",
    "version": "0.5.16+commit.9c3226ce.Emscripten.clang"
  },
  "schemaVersion": "3.4.11",
  "updatedAt": "2023-03-18T16:32:36.748Z",
  "networkType": "ethereum",
  "devdoc": {
    "methods": {}
  },
  "userdoc": {
    "methods": {}
  }
}